{
  "contractName": "Mlist",
  "abi": [
    {
      "inputs": [
        {
          "internalType": "string",
          "name": "_hashString",
          "type": "string"
        }
      ],
      "stateMutability": "nonpayable",
      "type": "constructor"
    },
    {
      "inputs": [],
      "name": "gethashInternalAsString",
      "outputs": [
        {
          "internalType": "string",
          "name": "",
          "type": "string"
        }
      ],
      "stateMutability": "view",
      "type": "function",
      "constant": true
    },
    {
      "inputs": [
        {
          "internalType": "string",
          "name": "_hashString",
          "type": "string"
        }
      ],
      "name": "sethashInternal",
      "outputs": [],
      "stateMutability": "nonpayable",
      "type": "function"
    }
  ],
  "bytecode": "0x60806040523480156200001157600080fd5b5060405162000cc638038062000cc683398181016040528101906200003791906200024d565b336000806101000a81548173ffffffffffffffffffffffffffffffffffffffff021916908373ffffffffffffffffffffffffffffffffffffffff160217905550806040516020016200008a9190620002eb565b6040516020818303038152906040528051906020012060001c6001819055505062000304565b6000604051905090565b600080fd5b600080fd5b600080fd5b600080fd5b6000601f19601f8301169050919050565b7f4e487b7100000000000000000000000000000000000000000000000000000000600052604160045260246000fd5b6200011982620000ce565b810181811067ffffffffffffffff821117156200013b576200013a620000df565b5b80604052505050565b600062000150620000b0565b90506200015e82826200010e565b919050565b600067ffffffffffffffff821115620001815762000180620000df565b5b6200018c82620000ce565b9050602081019050919050565b60005b83811015620001b95780820151818401526020810190506200019c565b83811115620001c9576000848401525b50505050565b6000620001e6620001e08462000163565b62000144565b905082815260208101848484011115620002055762000204620000c9565b5b6200021284828562000199565b509392505050565b600082601f830112620002325762000231620000c4565b5b815162000244848260208601620001cf565b91505092915050565b600060208284031215620002665762000265620000ba565b5b600082015167ffffffffffffffff811115620002875762000286620000bf565b5b62000295848285016200021a565b91505092915050565b600081519050919050565b600081905092915050565b6000620002c1826200029e565b620002cd8185620002a9565b9350620002df81856020860162000199565b80840191505092915050565b6000620002f98284620002b4565b915081905092915050565b6109b280620003146000396000f3fe608060405234801561001057600080fd5b50600436106100365760003560e01c806382c6410a1461003b578063e643e69414610059575b600080fd5b610043610075565b60405161005091906104ee565b60405180910390f35b610073600480360381019061006e9190610659565b610087565b005b6060610082600154610167565b905090565b60008054906101000a900473ffffffffffffffffffffffffffffffffffffffff1673ffffffffffffffffffffffffffffffffffffffff163373ffffffffffffffffffffffffffffffffffffffff1614610115576040517f08c379a000000000000000000000000000000000000000000000000000000000815260040161010c906106ee565b60405180910390fd5b6000610122600154610167565b9050600061013082846101ed565b905080604051602001610143919061074a565b6040516020818303038152906040528051906020012060001c600181905550505050565b606060008214156101af576040518060400160405280600481526020017f307830300000000000000000000000000000000000000000000000000000000081525090506101e8565b600082905060005b600082146101d95780806101ca9061079a565b915050600882901c91506101b7565b6101e38482610219565b925050505b919050565b606082826040516020016102029291906107e3565b604051602081830303815290604052905092915050565b60606000600283600261022c9190610807565b6102369190610861565b67ffffffffffffffff81111561024f5761024e61052e565b5b6040519080825280601f01601f1916602001820160405280156102815781602001600182028036833780820191505090505b5090507f3000000000000000000000000000000000000000000000000000000000000000816000815181106102b9576102b86108b7565b5b60200101907effffffffffffffffffffffffffffffffffffffffffffffffffffffffffffff1916908160001a9053507f78000000000000000000000000000000000000000000000000000000000000008160018151811061031d5761031c6108b7565b5b60200101907effffffffffffffffffffffffffffffffffffffffffffffffffffffffffffff1916908160001a9053506000600184600261035d9190610807565b6103679190610861565b90505b6001811115610407577f3031323334353637383961626364656600000000000000000000000000000000600f8616601081106103a9576103a86108b7565b5b1a60f81b8282815181106103c0576103bf6108b7565b5b60200101907effffffffffffffffffffffffffffffffffffffffffffffffffffffffffffff1916908160001a905350600485901c945080610400906108e6565b905061036a565b506000841461044b576040517f08c379a00000000000000000000000000000000000000000000000000000000081526004016104429061095c565b60405180910390fd5b8091505092915050565b600081519050919050565b600082825260208201905092915050565b60005b8381101561048f578082015181840152602081019050610474565b8381111561049e576000848401525b50505050565b6000601f19601f8301169050919050565b60006104c082610455565b6104ca8185610460565b93506104da818560208601610471565b6104e3816104a4565b840191505092915050565b6000602082019050818103600083015261050881846104b5565b905092915050565b6000604051905090565b600080fd5b600080fd5b600080fd5b600080fd5b7f4e487b7100000000000000000000000000000000000000000000000000000000600052604160045260246000fd5b610566826104a4565b810181811067ffffffffffffffff821117156105855761058461052e565b5b80604052505050565b6000610598610510565b90506105a4828261055d565b919050565b600067ffffffffffffffff8211156105c4576105c361052e565b5b6105cd826104a4565b9050602081019050919050565b82818337600083830152505050565b60006105fc6105f7846105a9565b61058e565b90508281526020810184848401111561061857610617610529565b5b6106238482856105da565b509392505050565b600082601f8301126106405761063f610524565b5b81356106508482602086016105e9565b91505092915050565b60006020828403121561066f5761066e61051a565b5b600082013567ffffffffffffffff81111561068d5761068c61051f565b5b6106998482850161062b565b91505092915050565b7f4e6f7420746865206f776e657200000000000000000000000000000000000000600082015250565b60006106d8600d83610460565b91506106e3826106a2565b602082019050919050565b60006020820190508181036000830152610707816106cb565b9050919050565b600081905092915050565b600061072482610455565b61072e818561070e565b935061073e818560208601610471565b80840191505092915050565b60006107568284610719565b915081905092915050565b7f4e487b7100000000000000000000000000000000000000000000000000000000600052601160045260246000fd5b6000819050919050565b60006107a582610790565b91507fffffffffffffffffffffffffffffffffffffffffffffffffffffffffffffffff8214156107d8576107d7610761565b5b600182019050919050565b60006107ef8285610719565b91506107fb8284610719565b91508190509392505050565b600061081282610790565b915061081d83610790565b9250817fffffffffffffffffffffffffffffffffffffffffffffffffffffffffffffffff048311821515161561085657610855610761565b5b828202905092915050565b600061086c82610790565b915061087783610790565b9250827fffffffffffffffffffffffffffffffffffffffffffffffffffffffffffffffff038211156108ac576108ab610761565b5b828201905092915050565b7f4e487b7100000000000000000000000000000000000000000000000000000000600052603260045260246000fd5b60006108f182610790565b9150600082141561090557610904610761565b5b600182039050919050565b7f537472696e67733a20686578206c656e67746820696e73756666696369656e74600082015250565b6000610946602083610460565b915061095182610910565b602082019050919050565b6000602082019050818103600083015261097581610939565b905091905056fea2646970667358221220a827af85fc0bf620a9b2c7d736ecd9901aaafeb22f643522834eb0a422e5af7164736f6c634300080b0033",
  "immutableReferences": {},
  "source": "// SPDX-License-Identifier: MIT\npragma solidity ^0.8.10;\n\nimport \"../node_modules/@openzeppelin/contracts/utils/Strings.sol\";\n\ncontract Mlist {\n    address owner;\n    uint hashInternal;\n\n    constructor(string memory _hashString) {\n        owner = msg.sender;\n        hashInternal = uint(keccak256(abi.encodePacked(_hashString)));\n    }\n\n    function concatenate(string memory a, string memory b) internal pure returns (string memory) {\n        return string(abi.encodePacked(a, b));\n    }\n\n    function gethashInternalAsString() public view returns(string memory) {\n        return Strings.toHexString(hashInternal);\n    }\n\n    function sethashInternal(string memory _hashString) public {\n        require(msg.sender == owner, \"Not the owner\");\n\n        string memory hashInternalString = Strings.toHexString(hashInternal);\n        string memory stringNew = concatenate(hashInternalString, _hashString);\n\n        hashInternal = uint(keccak256(abi.encodePacked(stringNew)));\n    }\n}",
  "sourcePath": "/Users/carlo/Documents/lavoro/kiwifarm/soft.kiwi/scratch/blockchain_lab/p2/0/contracts/Mlist.sol",
  "compiler": {
    "name": "solc",
    "version": "0.8.11+commit.d7f03943.Emscripten.clang"
  },
  "schemaVersion": "3.4.5",
  "updatedAt": "2022-03-01T09:33:40.098Z",
  "networkType": "ethereum",
  "devdoc": {
    "kind": "dev",
    "methods": {},
    "version": 1
  },
  "userdoc": {
    "kind": "user",
    "methods": {},
    "version": 1
  }
}